:100000000EC01DC04BC01BC01AC01AC018C017C0FC
:1000100016C015C014C013C012C011C010C01124E6
:100020001FBECFE5D1E0DEBFCDBF20E0A0E6B0E04F
:1000300001C01D92A236B207E1F748D059C0E0CF07
:100040001F920F920FB60F9211248F939F9380915E
:100050006000909161008C35910581F410926100EF
:100060001092600089B78D7F89BF88B3877F96B370
:10007000967009F098E0892B88BB09C080916000D8
:1000800090916100019690936100809360009F9130
:100090008F910F900FBE0F901F9018951F920F9287
:1000A0000FB60F9211248F9386B3867029F412BE77
:1000B00089B7826089BF04C089B78D7F89BFC39A21
:1000C0008F910F900FBE0F901F90189587B3896F77
:1000D00087BBBB9AC39A78948BB780628BBF85B37A
:1000E000866085BB1ABC13BE83B7856083BFFFCF14
:0400F000F894FFCFB2
:00000001FF
